:020000040800F2
:10000000400700204D020008A11C0008611B0008E9
:100010009D1C0008F90300081920000800000000DA
:10002000000000000000000000000000C91D0008E2
:10003000FD03000800000000A51C0008CD1D0008FD
:1000400067020008670200086702000867020008EC
:1000500067020008670200086702000867020008DC
:1000600067020008670200086702000867020008CC
:1000700067020008670200086702000867020008BC
:1000800067020008670200086702000867020008AC
:10009000670200086702000867020008670200089C
:1000A0009D1E0008C11E0008B51E0008A91E0008FC
:1000B000670200086702000867020008670200087C
:1000C000670200086702000867020008670200086C
:1000D000670200086702000867020008670200085C
:1000E000670200086702000867020008670200084C
:1000F000670200086702000867020008670200083C
:10010000670200086702000867020008670200082B
:10011000670200086702000867020008670200081B
:10012000670200086702000867020008670200080B
:1001300067020008670200086702000867020008FB
:1001400067020008670200086702000867020008EB
:1001500067020008670200086702000867020008DB
:1001600067020008670200086702000867020008CB
:10017000670200086702000867020008000000002C
:1001800067020008670200086702000867020008AB
:10019000670200086702000867020008670200089B
:1001A00000000000000000006702000800F002F8F4
:1001B00000F03CF80AA090E8000C82448344AAF1C5
:1001C0000107DA4501D100F031F8AFF2090EBAE8C3
:1001D0000F0013F0010F18BFFB1A43F0010318477B
:1001E000B41F0000D41F0000103A24BF78C878C1A3
:1001F000FAD8520724BF30C830C144BF04680C602D
:10020000704700000023002400250026103A28BF74
:1002100078C1FBD8520728BF30C148BF0B60704778
:100220001FB501F0A2FF1FBD10B510BD00F0A9F869
:100230001146FFF7F5FF01F087FF00F0C7F803B4A0
:10024000FFF7F2FF03BC00F0CFF800000948804739
:1002500009480047FEE7FEE7FEE7FEE7FEE7FEE7A8
:10026000FEE7FEE7FEE7FEE704480549054A064BC0
:1002700070470000891E0008AD0100084001002001
:1002800040070020400300204003002053EA020CF6
:1002900000F069802DE9F04B4FF00006002B1FBFE6
:1002A000B3FA83F503FA05F424FA05F65E4012BFAB
:1002B0001643B2FA82F502FA05F4C5F120051EBF15
:1002C00022FA05FC44EA0C04203556EA044C4FEAB5
:1002D000144418BF641C4FF000084FF0000990420E
:1002E00071EB030C39D3002919BFB1FA81F701FA78
:1002F00007F6B0FA80F700FA07F6C7F120071EBF2D
:1003000020FA07FC46EA0C062037B6FBF4FCA7EB04
:100310000507103F07F01F0BCBF120062CFA06F65D
:100320000CFA0BFB44BFB3460026202FA4BF5E4649
:100330004FF0000B5BEA060C08BF4FF0010B19EB06
:100340000B0948EB0608ABFB027C06FB02CC0BFB5F
:1003500003CCC01B71EB0C01C1E70B4602464146C2
:100360004846BDE8F08B13B5084318BF4FF0FF3087
:100370000146AFF30080BDE81C40704770477047EE
:100380007047754600F02CF8AE46050069465346A6
:1003900020F00700854618B020B5FFF765FFBDE8DF
:1003A00020404FF000064FF000074FF000084FF0DC
:1003B000000BAC46ACE8C009ACE8C009ACE8C00929
:1003C000ACE8C00921F007018D46704710B504461E
:1003D000AFF300802046BDE81040FFF730BF0000BB
:1003E000004870471000002001491820ABBEFEE70E
:1003F0002600020070470000FEE700007047000082
:1004000072B600BFFEE700002DE9F04F82B000F1A8
:100410003E4242F2004502F1FF77C4F202050A2291
:1004200043F6004E4FEAB726A84208BF0922C4F29D
:10043000010E092E38BF4FEAB722012500260027FA
:100440004FF00008009208E008F101080437B8F105
:10045000100F06F1020600F0A7800C6805FA08F9F3
:1004600014EA090FF0D0D1F804B003220BF0030C0A
:10047000ACF10104B240012C6FEA020A10D8826884
:10048000CC6802EA0A02B440224382604268CBF39D
:10049000001422EA090204FA08F42243426005E04B
:1004A000BCF1030F02D14FF0030C20E0C2688C684E
:1004B00002EA0A02B4402243BCF1020FC26016D124
:1004C0006FF0030202EA58020244D2F820C007F09B
:1004D0001C050F230C69AB402CEA030304FA05F555
:1004E0002B431362D1F804B001250BF0030C026812
:1004F0000CFA06F302EA0A021A431BF4403F0260B8
:10050000A2D0002243F644030192C4F202031A6807
:100510004FF6084C42F480421A601A68CFF6FF7C0E
:1005200002F480420192019A28F00302724452F8C8
:100530000C3007F00C050F24AC40A343009C04FAD8
:1005400005F52B4342F80C30DEF808204B6842EAF0
:10055000090543F60C4CDC0258BF22EA0905CEF827
:100560000850C4F2010CDCF800209C0242EA0905A4
:1005700058BF22EA0905CCF80050DEF804209C039D
:1005800042EA090558BF22EA0905CEF80450DEF810
:100590000020DB0342EA090558BF22EA0905CEF82C
:1005A0000050012550E700BF02B0BDE8F08F000009
:1005B000002A08BF090481617047000040F2201042
:1005C000C2F200000068704740F2000040F22011C3
:1005D000C2F20000C2F2000100780A68104408600C
:1005E0007047000080B543F60040C4F20200016885
:1005F00041F400710160016841F4806101600168AB
:1006000041F480710160032000F088F80F2000F0B1
:1006100005F800F027F8002080BD000070B540F21A
:100620000006C2F2000640F208013278C2F2000170
:100630004FF47A730968B3FBF2F20446B1FBF2F1AE
:10064000084600F0CFFF0F2C4FF0010508D838B94D
:100650004FF0FF3021460022002500F033F874608F
:10066000284670BD82B0002043F640010190C4F2DC
:1006700002014A6842F480424A604A6802F48042B9
:100680000192019A0090086840F080500860086864
:1006900000F080500090009802B07047002848BFDA
:1006A0007047C1B200F01F00012202FA00F04EF2C2
:1006B0000012CEF2000242EAD10121F003010860EB
:1006C0007047000010B54EF60C5CCEF2000CDCF862
:1006D0000030C3F3022E8EF00704042C28BF04243C
:1006E000BEF103034FF0FF3E0EFA04F438BF0023BF
:1006F000A14399400EFA03F39A43114300F00F020D
:1007000000F160430901043A03F5644362440028A0
:1007100048BF02F10C03197010BD00004EF60C51D9
:10072000CEF200010A684FF6FF031A4060F30A2276
:1007300042F0806040F0FD700860704770B582B094
:100740000020019043F64000C4F2020001684026F8
:1007500041F0805101600068C4F20E2600F0805024
:100760000190019847F204050120C4F200053060B1
:10077000FFF724FF044600BF2868C00306D4FFF734
:100780001DFF001BB0F57A7FF6D90EE001207060E6
:10079000FFF714FF044600BF2868800308D4FFF762
:1007A0000DFF001BB0F57A7FF6D9032002B070BDB3
:1007B000002002B070BD00002DE9F041002800F0DB
:1007C0008B8043F60808C4F202080446D8F8F80300
:1007D0000D4600F00F00884207D288F8F853D8F889
:1007E000F80300F00F00A84276D12068810717D5E2
:1007F000410705D5D8F8001041F4E051C8F80010C1
:10080000010705D5D8F8001041F46041C8F8001080
:10081000D8F80010A26821F0F0011143C8F80010C8
:10082000C0073FD1D8F8F80300F00F00A84207D95D
:1008300088F8F853D8F8F80300F00F00A8424BD11D
:100840002068410707D5D8F80010E26821F4E0518C
:100850001143C8F80010000708D5D8F80000216936
:1008600020F4604040EAC100C8F8000000F054F8ED
:10087000D8F8001042F28412C1F30311C0F600024E
:10088000515C40F2080220FA01F140F20400C2F289
:1008900000000068C2F200021160FFF7BFFE0020F6
:1008A000BDE8F0816068811E022907D258F8081C53
:1008B00089015CBF0120BDE8F08111E0012807D16A
:1008C00058F8081C89035CBF0120BDE8F08107E0EF
:1008D00058F8081C890703D40120BDE8F08100BF47
:1008E000D8F8001021F003010843C8F80000FFF712
:1008F00065FE064641F28837D8F80000616800F0CE
:100900000C00B0EB810F8DD0FFF758FE801BB84272
:10091000F2D90320BDE8F08110B543F60404C4F217
:100920000204606800F00C0008280BD0042819BFEE
:1009300042F20040C0F2F40041F60030C0F2B700CD
:1009400010BD00BF206821682368490241F60031CC
:10095000C0F2B70100F03F02C3F388105CBF42F25F
:100960000041C0F2F401A1FB00010023FFF78EFC5F
:1009700021680222C1F3014102EB4101B0FBF1F019
:1009800010BD00002DE9F04182B0002868D0044677
:10099000007843F60006C007C4F202060BD0B06828
:1009A00000F00C00042840F09F803068800302D5DE
:1009B0006068002854D0207880071AD5B06810F0FD
:1009C0000C0F09D0B06800F00C00082840F0A68099
:1009D0007068400200F1A2803068800702D5E068AC
:1009E00001283DD13068216920F0F80040EAC100BB
:1009F00030602078000737D4207840074CD4A569B0
:100A000055B3B06800F00C00082840F0BB80012D01
:100A100026D07068E16900F480028A4220D1216A00
:100A200000F03F028A421BD147F6C071626A014062
:100A3000B1EB821F14D1A16A4FF6FF73C90399432A
:100A400000F44032A1F580318A4209D1E16A00F018
:100A50007060B0EB016F03D1002002B0BDE8F081FF
:100A6000012002B0BDE8F0816069002840F200007A
:100A7000C4F2472076D00121C0F8801EFFF79EFD0A
:100A8000054600BF706F8007B6D4FFF797FD401B87
:100A90000228F7D9DDE000BF306C10F080580AD191
:100AA00000200190306C40F080503064306C00F0D9
:100AB00080500190019847F20007C4F2000738689F
:100AC000C00541D4386840F480703860FFF776FD87
:100AD000054600BF3868C00536D4FFF76FFD401BE0
:100AE0000228F7D9B5E000BFB06800F00C00082874
:100AF00003D1706840023FF558AF6068B0F5803FA1
:100B000007D0B0F5A02F40F08D80306840F48020F1
:100B10003060306840F4803030608DE0E06800285C
:100B200052D00020C4F2472001210160FFF746FDAA
:100B3000054600BF306880073FF554AFFFF73EFD24
:100B4000401B0228F6D984E0A068012805D00528BA
:100B50004ED1306F40F004003067306F40F001003C
:100B600030674FE00021C0F8801EFFF727FD0546E3
:100B7000706F80077FF540AFFFF720FD401B022814
:100B8000F6D966E00027C4F2472700203866FFF751
:100B900015FD022D05460BD1306880015ED5FFF7AB
:100BA0000DFD401B02284FF00300F5D955E700BFAB
:100BB000306880017FF550AFFFF700FD401B022831
:100BC0004FF00300F4D948E70020C4F24720002189
:100BD0000160FFF7F3FC0546306880077FF509AF39
:100BE000FFF7ECFC401B02284FF00300F4D934E778
:100BF000316F002821F001013167316F21F00401CC
:100C000031674DD0FFF7DAFC054641F2883700BF67
:100C1000306F800756D4FFF7D1FC401BB842F7D99C
:100C200017E000BF3168002821F48031316031685D
:100C300021F4802131604FD0FFF7C0FC054600BF92
:100C4000306880033FF5B7AEFFF7B8FC401B64285F
:100C5000F6D9032002B0BDE8F08100BF04F11C0505
:100C60002FCD084340EA8210D9034FF6FF7291431B
:100C7000A1F5803140EA05600843706001203866C4
:100C8000FFF79CFC044600BF306880013FF5E4AEEE
:100C9000FFF794FC001B02284FF00300F4D9DCE6B8
:100CA000FFF78CFC054641F2883700BF306F8007A4
:100CB00008D5FFF783FC401BB8424FF00300F5D97D
:100CC000CBE600BFB8F1000F7FF499AE306C20F096
:100CD0008050306493E600BFFFF770FC054600BF0C
:100CE000306880037FF567AEFFF768FC401B64281F
:100CF0004FF00300F4D9B0E670B538B10446406A4D
:100D000030B10020206104F1140007E0012070BD23
:100D10006068B0F5827F03D004F11C0000210160FF
:100D20000026A66294F8510020B9204684F850604D
:100D300000F03CF8022084F8510094E80F0001F420
:100D40008271056802F4044225F0400505601144F3
:100D500003F400622369114403F002026369114441
:100D600003F00102A369E569114403F40072114420
:100D700005F03802256A114405F08002A56A114386
:100D800005F4005211430160626A042101EA134133
:100D900002F0100211444160C16921F40061C16197
:100DA0000120666584F85100304670BD80B586B07C
:100DB000016845F20000C4F20100814202D006B091
:100DC00080BD00BF002143F630020191C4F202024F
:100DD000536900F5444043F480135361536903F4AD
:100DE00080130193019B0191136843F0200313606A
:100DF000126802F020020192019A4FF4607201928F
:100E00000222CDE90221032104910521059101A9C6
:100E1000FFF7FAFA06B080BD2DE9F04182B0044632
:100E200090F85100012819D160681D4617460E46FA
:100E3000B0F5827F01D1A068A0B1FFF7BFFB80466B
:100E4000002E4FF0010018BF002F03D102B0BDE803
:100E5000F08100BF94F85000012811D1022002B0A7
:100E6000BDE8F081042084F8510020463146324626
:100E70003B46009500F00EFA02B0BDE8F08100BFDD
:100E8000012084F850000420002184F8510061659D
:100E9000A663A787E7872163A186E186A268206809
:100EA000B2F5004F2164616438D00168490640D52D
:100EB000E168E08F002944D000287BD0681C0CD169
:100EC0001BE000BFC068A16B21F8020BA163E08F9B
:100ED0000138E087E08F00286CD020688168C9075E
:100EE000F0D1FFF76BFBA0EB0800A842F2D342E081
:100EF000FFF764FBE08F00285CD020688168C90799
:100F0000F6D0C068A16B21F8020BA163E08F013815
:100F1000E087E08F0028F0D14CE000BF016821F0AD
:100F200040010160016821F48041016001684906C7
:100F3000BED4016841F040010160E168E08F002902
:100F4000BAD1B8B3681C0CD124E000BF007BA16B00
:100F50000870A06B0130A063E08F0138E087E08F5C
:100F600040B320688168C907F0D1FFF727FBA0EBE9
:100F70000800A842F3D3012084F85100002084F82F
:100F80005000032002B0BDE8F08100BFFFF716FB60
:100F9000E08F78B120688168C907F7D0007BA16B2A
:100FA0000870A06B0130A063E08F0138E087E08F0C
:100FB0000028EFD16068B0F5827F0ED1A068B0F54F
:100FC000004F02D0B0F5806F0AD12168B0F5806F74
:100FD0000A6822F040020A6002D12046012101E0A5
:100FE0002046802100222B46CDF8008000F05CFED8
:100FF00028B1606D40F02000606520206065012010
:1010000084F85100002084F85000606D002818BF5B
:10101000012002B0BDE8F0812DE9F04184B01D4609
:1010200016460F460446FFF7C9FA94F851100129F5
:101030000ED18046002F4FF0010018BF002E03D1C3
:1010400004B0BDE8F08100BF94F85000012803D13E
:10105000022004B0BDE8F081012084F85000032094
:10106000002184F8510061652763A686E686A163A6
:10107000A187E187A0682164B0F5004F2068616412
:1010800007D1016821F040010160016841F480410D
:1010900001600168490603D4016841F04001016024
:1010A0006168731EE268B1FA81F1B3FA83F349090A
:1010B0005B09B2F5006F41EA030139D131B137F86C
:1010C000021BC1602763E08E0138E086E08E0028B5
:1010D00070D0681C0BD11AE0216B31F8022BC26072
:1010E0002163E08E0138E086E08E002862D020681F
:1010F00081688907F0D4FFF761FAA0EB0800A842E5
:10110000F2D338E0FFF75AFAE08E002852D0206878
:1011100081688907F6D5216B31F8022BC260216303
:10112000E08E0138E086E08E0028F0D142E000BF7A
:1011300039B139780173206B01302063E08E0138BA
:10114000E086E08EB0B3681C0BD123E0216B0978F8
:101150000173206B01302063E08E0138E086E08E61
:1011600040B3206881688907F0D4FFF727FAA0EB25
:101170000800A842F3D3012084F85100002084F82D
:101180005000032004B0BDE8F08100BFFFF716FA5D
:10119000E08E78B1206881688907F7D5216B0978DE
:1011A0000173206B01302063E08E0138E086E08E11
:1011B0000028EFD12046022101222B46CDF80080E5
:1011C00000F072FDE0B1606D40F02000606520200D
:1011D0006065A06838B9002002902068C16802915B
:1011E000806802900298012084F85100002084F861
:1011F0005000606D002818BF012004B0BDE8F081E8
:1012000040F20800C2F20000006849F68171C1F2A4
:101210005E61A0FB0101480D4FF47A7148430390D1
:101220006068B0F5827F0BD12046802100222B46DA
:10123000CDF8008000F038FD0028C4D1C9E700BF18
:1012400003980028C5D0039801380390206880686F
:101250000006BED503980028BBD003980138039040
:10126000206880680006B4D503980028B1D00398A0
:1012700001380390206880680006AAD503980028EA
:10128000A7D0039801380390206880680006D7D45F
:101290009FE700002DE9F04383B01E4615460F4638
:1012A0000446FFF78BF994F851108146012909D1C2
:1012B000002F4FF0010018BF002D0FD103B0BDE883
:1012C000F08300BF6068B0F5827F0DD1A068002870
:1012D0004FF0020008BF0429F0D1E9E7002EEDD05D
:1012E00094F85000012803D1022003B0BDE8F08338
:1012F000012084F8500094F85100002104281CBFFC
:10130000052084F851006165A563E687A6872763F9
:10131000E6862068A686216461640168490603D4D4
:10132000016841F0400101606168731EE268B1FA32
:1013300081F1B3FA83F3DDF8288049095B09B2F53E
:10134000006F41EA030165D131B137F8021BC1607A
:101350002763E08E0138E086012518F1010032D1C3
:1013600002E000BFFFF72AF9E08E18B9E08F0028ED
:1013700000F0B8802068816889070CD5E18E51B1F2
:10138000012D08D1216B002531F8022BC2602163A9
:10139000E18E0139E1868168C907E3D0E18F002938
:1013A000E0D0C068A16B012521F8020BA163E08F9A
:1013B0000138E087D6E700BFFFF700F9A0EB09008E
:1013C000404580F0A580E08E18B9E08F002800F03D
:1013D00089802068816889070CD5E18E51B1012D83
:1013E00008D1216B002531F8022BC2602163E18E08
:1013F0000139E1868168C907DED0E18F0029DBD0A1
:10140000C068A16B012521F8020BA163E08F0138B0
:10141000E087D1E739B139780173206B013020635F
:10142000E08E0138E086012518F1010032D101E09B
:10143000FFF7C4F8E08E10B9E08F002852D0206882
:10144000816889070ED5E18E61B1012D0AD1216B2A
:10145000002509780173216B206801312163E18E39
:101460000139E1868168C907E2D0E18F0029DFD028
:10147000C068A16B01250870A06B0130A063E08FEC
:101480000138E087D4E700BFFFF798F8A0EB090028
:1014900040453DD2E08E08B9E08F18B320688168DE
:1014A00089070ED5E18E61B1012D0AD1216B00258E
:1014B00009780173216B206801312163E18E0139C4
:1014C000E1868168C907DFD0E18F0029DCD0C068E0
:1014D000A16B01250870A06B0130A063E08F01387B
:1014E000E087D1E72046022101224346CDF8009053
:1014F00000F0DAFBB0B1606D40F0200060652020A4
:101500006065002084F85000012003B0BDE8F0833E
:10151000012084F85100002084F85000032003B01B
:10152000BDE8F08340F20800C2F20000006849F60E
:101530008171C1F25E61A0FB0101480D4FF47A7127
:10154000484302906068B0F5827F21D12046802117
:1015500000224346CDF8009000F0A6FB0028CAD137
:10156000A06838B9002001902068C16801918068A6
:1015700001900198012084F85100002084F8500067
:10158000606D002818BF012003B0BDE8F08300BFE4
:1015900002980028E4D00298013802902068806800
:1015A0000006DDD502980028DAD0029801380290B2
:1015B000206880680006D3D502980028D0D0029811
:1015C00001380290206880680006C9D5029800287A
:1015D000C6D0029801380290206880680006D7D4EF
:1015E000BEE70000411E0020B0EB116F1CBF0120C0
:1015F00070474EF21002CEF2000251604EF62351B7
:10160000CEF20001F0230B7007219060116070474B
:10161000704700007047000010B590F83C20012A88
:101620004FF0020251D080F83D200268D2F804E069
:10163000D2F808C00C682EF07003234341F2FF7407
:10164000C4F20004A24253600EDC40F2FF73C4F205
:1016500000039A4216DCB2F1804F2BD040F20043D7
:10166000C4F2000324E000BF40F2FF33C4F20103E0
:101670009A4213DC41F60003C4F200039A4219D0E7
:10168000002313E040F60003C4F200039A4211D095
:1016900040F60043C4F200030AE000BF44F2000336
:1016A000C4F201039A4205D040F20043C4F20103A0
:1016B0009A4204D149682CF08003194391600121BA
:1016C000002280F83D1080F83C20104610BD00003C
:1016D000002804BF0120704710B5044690F83D0073
:1016E00028B9002084F83C00204600F01FF80220B2
:1016F00084F83D002068211D00F0E8FB012084F8FB
:10170000460084F83E0084F83F0084F8400084F8E6
:10171000410084F8420084F8430084F8440084F8CF
:10172000450084F83D00002010BD000080B582B067
:1017300000680021C4F2010188421CBF02B080BDD4
:101740000020019043F64400C4F202000168002228
:1017500041F0010101600068002100F001000190EA
:1017600001981820FEF7AEFF1820FEF797FF19200A
:1017700000210022FEF7A6FF1920FEF78FFF1A2096
:1017800000210022FEF79EFF1A20FEF787FF1B2094
:1017900000210022FEF796FF1B2002B0BDE880402A
:1017A000FEF77CBF90F83D1001291CBF0120704757
:1017B000022180F83D10006841F2FF72C168C4F256
:1017C0000002904241F00101C1600DDC40F2FF7166
:1017D000C4F20001884215DCB0F1804F2AD040F2FB
:1017E0000041C4F2000123E040F2FF31C4F20101E4
:1017F000884213DC41F60001C4F20001884219D08E
:10180000002113E040F60001C4F20001884211D02B
:1018100040F60041C4F200010AE000BF44F20001BA
:10182000C4F20101884205D040F20041C4F2010136
:10183000884206D1816801F00701062904BF002013
:101840007047016841F0010101600020704700000D
:1018500080B590F83C20012A4FF0020200F0C280CF
:1018600080F83D20D0F800C04FF67772DCF80830E1
:1018700023EA0202CCF808200B684F2B28DC1F2B30
:1018800044DD202B45D0302B43D0402B40F0AC80A2
:10189000D1F804E0C968DCF82030DCF8202022F020
:1018A0000102CCF82020DCF8182022F0F00242EAF5
:1018B000011123F00A0242EA0E02CCF81810CCF80B
:1018C0002020DCF8081041F0470121F0300180E0D1
:1018D0006F2B27DDB3F5005F48D0B3F5805F7AD07A
:1018E000702B40F08180D1E901E3C968DCF8082061
:1018F00043EA0E0322F47F4243EA01211143CCF86C
:101900000810DCF8081041F0770162E00BB1102BF1
:101910006AD1DCF8081021F07001194341F0070189
:1019200057E000BF502B35D0602B5DD1D1F804E0DB
:10193000C968DCF82030DCF8202022F01002CCF856
:101940002020DCF8182022F4704242EA013123F012
:10195000A00242EA0E12CCF81810CCF82020DCF8D5
:10196000081041F0670121F0100132E0D1E901E3F4
:10197000C968DCF8082043EA0E0322F47F4243EAF8
:1019800001211143CCF80810DCF8081041F4804123
:101990001FE000BFD1F804E0C968DCF82030DCF8B3
:1019A000202022F00102CCF82020DCF8182022F0C0
:1019B000F00242EA011123F00A0242EA0E02CCF8D8
:1019C0001810CCF82020DCF8081041F0570121F065
:1019D0002001CCF808100022012180F83D100021E0
:1019E00080F83C10104680BD0122F5E770470000EA
:1019F00070B504460068C5680669B10716D515F0CC
:101A0000020113D06FF00201016101212177806989
:101A1000800703D02046FFF7E9FF05E0204600F0ED
:101A20008FF8204600F08EF800202077700719D537
:101A300015F0040016D020686FF004010161022146
:101A40002177806910F4407F04D02046FFF7CEFF55
:101A500006E000BF204600F073F8204600F072F860
:101A600000202077300717D515F0080014D0206823
:101A70006FF00801016104212177C069800703D05C
:101A80002046FFF7B3FF05E0204600F059F8204656
:101A900000F058F800202077F00619D515F0100056
:101AA00016D020686FF01001016108212177C0690C
:101AB00010F4407F04D02046FFF798FF06E000BFF7
:101AC000204600F03DF8204600F03CF8002020774A
:101AD000F00718BF15F0010002D1300609D412E05A
:101AE00020686FF001010161204600F02DF83006FA
:101AF00009D515F0800006D020686FF080010161E3
:101B00002046FFF785FD700609D515F0400006D088
:101B100020686FF040010161204600F01FF8B00618
:101B200058BF70BD15F0200008D021686FF020026A
:101B300020460A61BDE87040FFF76CBD70BD000033
:101B4000704700007047000000680021C4F20101E6
:101B5000884218BF704700F061BA0000704700006B
:101B6000FEE7000070B586B0002543F6300005950D
:101B70000095C4F20200016841F2004441F0010105
:101B800001600168C4F2020401F0010100910099B2
:101B900000950168002241F0800101600168402643
:101BA00001F08001009100990095016841F0200149
:101BB00001600068402100F020000090009820465D
:101BC000FEF7F6FC0120CDE9020501A920460196A9
:101BD0000495FEF719FC06B070BD000080B540F218
:101BE000800045F20001C2F20000C4F201014FF48E
:101BF0008272002380E80E0000F114014FF4007C93
:101C00004FF0300E81E808500A21C0E90333C0E9E3
:101C10000833C0E90A31FFF76FF8002808BF80BD1C
:101C2000BDE88040FEF7ECBB80B586B040F2D8003E
:101C300000220021C2F20000C4F20102B32341F2EB
:101C4000873C0591CDE90311CDE90011C0E90023DE
:101C5000C0E9021CC0E904118161FFF739FD0028C9
:101C600018BFFEF7CDFB4FF48050029040F2D80031
:101C7000C2F2000002A9FFF7EBFD002818BFFEF733
:101C8000BFFB40F2D800C2F200006946FFF7C4FC77
:101C9000002818BFFEF7B4FB06B080BDFEE70000C9
:101CA000FEE70000704700002DE9F04381B0089C7A
:101CB000984615460E468146FEF780FC201A00EB3A
:101CC0000804FEF77BFC40F20801C2F2000109683B
:101CD000C1F3CB3161430091D9F800108A683240DA
:101CE000921BB2FA82F25209AA423DD0074618F17D
:101CF000010031D0FEF762FCC01BA04238D2009830
:101D000000990028A1F101010091D9F8001089681B
:101D100008BF044601EA0600801BB0FA80F04009C3
:101D2000A842E7D120E000BF88683040801BB0FAAD
:101D300080F04009A84217D088683040801BB0FA74
:101D400080F04009A8420FD088683040801BB0FA6C
:101D500080F04009A84207D088683040801BB0FA64
:101D600080F04009A842DFD1002001B0BDE8F08337
:101D7000D9E900014268B1F5827F22F0E0024260B9
:101D80000BD1D9F80810B1F5004F02D0B1F5806F32
:101D900003D1016821F040010160D9F82810B1F5A4
:101DA000005F07D1016821F400510160016841F42E
:101DB00000510160012089F85100002089F850008D
:101DC000032001B0BDE8F08370470000FEF7FCBBC4
:101DD00080B592B0002043F64001CDE90A00CDE97C
:101DE00008000590CDE90300CDE901000090C4F2A0
:101DF00002010A6842F080520A60096801F08051CD
:101E000000910099009047F20000C4F200000168C0
:101E100041F44041016000684FF4800100F440400B
:101E200000900098012006904FF480300D9106211B
:101E3000079002200E91B4210C90CDE90F100420E0
:101E4000119006A8FEF79EFD10B172B6FEE700BF26
:101E5000FEF774FC10B172B6FEE700BF0F200190D0
:101E600002200290002003904FF4A05004904FF401
:101E70008050059001A80521FEF79EFC10B172B6B6
:101E8000FEE700BF12B080BD4EF68850CEF20000D3
:101E9000016841F4700101607047000040F2D80011
:101EA000C2F20000FFF7A4BD40F2D800C2F2000069
:101EB000FFF79EBD40F2D800C2F20000FFF798BDC8
:101EC00040F2D800C2F20000FFF792BD10B540F614
:101ED000FF3E0368C4F2000E40F2004C7045C4F2AD
:101EE000010C27DCB0F1804F31D040F20042C4F247
:101EF000000290422BD040F60002C4F20002904251
:101F000025D041F6FF72C4F20002904229DC7045F0
:101F10003CDCB0F1804F5FD040F20042C4F20002DE
:101F2000904259D040F60002C4F20002904253D0D1
:101F300056E000BF40F60042C4F20002904206D0D4
:101F4000604504D00022C4F201029042D9D14A680F
:101F500023F07003134341F6FF72C4F20002904273
:101F6000D5DD43F6FF72C4F20102904222DC42F258
:101F70000002C4F2000290422ED00022C4F20102FC
:101F8000904229D0604527D02AE000BF40F60042A9
:101F9000C4F2000290421FD041F60002C4F20002D7
:101FA000904219D041F60042C4F20002904213D090
:101FB00016E000BF44F20002C4F2010290420BD0CE
:101FC00044F60002C4F20102904205D044F20042FD
:101FD000C4F20102904203D1CA6823F44073134350
:101FE00023F080024B69D1F800E08C681A4302604C
:101FF000C46240F48062C0F828E0624504BF096909
:102000000163012141610169C90708BF10BD016970
:1020100021F00101016110BDFEE7000070B540F242
:10202000700441F20045C2F20004BB20C4F2020574
:102030002070284640210022FEF7BAFA40F28006BE
:10204000C2F200063046214601224FF47A73FEF7B1
:10205000E3FF611C30460E224FF47A73FEF7DCFE7C
:10206000284640210122FEF7A3FAB4F80100B4F893
:102070000310C0BA00EE100AB8EEC00A9FED301A85
:1020800030EE000A40F22410C9BA20EE010AC2F272
:10209000000080ED000A00EE101AB4F80520B8EE3A
:1020A000C00A30EE000A40F22C10D2BA20EE010A2B
:1020B000C2F2000080ED000A00EE102AB8EEC00A5D
:1020C00030EE000A40F23410B4F8091020EE010A94
:1020D000C2F2000080ED000AC8BA00EE100A9FEDBF
:1020E000192AB4F80B10B8EEC00A20EE020A40F22A
:1020F0002810C9BA20EE010AC2F2000080ED000AE1
:1021000000EE101AB4F80D20B8EEC00A20EE020A54
:1021100040F23010D2BA20EE010AC2F2000080ED87
:10212000000A00EE102AB8EEC00A20EE020A40F2C1
:10213000381020EE010AC2F2000080ED000A70BDE6
:102140000000003800007A43FEF74CFAFFF740FE2B
:10215000FFF708FDFFF742FDFFF766FD40F2D800EC
:10216000C2F20000FFF71EFBFEE7F1EE100A4FF689
:10217000FF71C0F2C03120EA010040F04070E1EE92
:10218000100A704700000000000000000102030474
:1021900006070809B8210008000000201000000010
:1021A000E8010008C82100081000002030070000E6
:1021B0000402000800000000010000001000000000
:0821C0000024F40000000000FF
:04000005080001AD41
:00000001FF
